{
  "contractName": "ProjectSubmission",
  "abi": [
    {
      "anonymous": false,
      "inputs": [
        {
          "indexed": false,
          "internalType": "bytes32",
          "name": "projectHash",
          "type": "bytes32"
        }
      ],
      "name": "DisableProjectEvent",
      "type": "event"
    },
    {
      "anonymous": false,
      "inputs": [
        {
          "indexed": false,
          "internalType": "address",
          "name": "addrUniversity",
          "type": "address"
        }
      ],
      "name": "DisableUniversityEvent",
      "type": "event"
    },
    {
      "anonymous": false,
      "inputs": [
        {
          "indexed": true,
          "internalType": "bytes32",
          "name": "projectHash",
          "type": "bytes32"
        },
        {
          "indexed": false,
          "internalType": "uint256",
          "name": "projectBalance",
          "type": "uint256"
        },
        {
          "indexed": false,
          "internalType": "uint256",
          "name": "univBalance",
          "type": "uint256"
        },
        {
          "indexed": false,
          "internalType": "uint256",
          "name": "ownerBalance",
          "type": "uint256"
        }
      ],
      "name": "DonateEvent",
      "type": "event"
    },
    {
      "anonymous": false,
      "inputs": [
        {
          "indexed": false,
          "internalType": "address",
          "name": "addrUniversity",
          "type": "address"
        }
      ],
      "name": "RegisterUniversityEvent",
      "type": "event"
    },
    {
      "anonymous": false,
      "inputs": [
        {
          "indexed": true,
          "internalType": "bytes32",
          "name": "projectHash",
          "type": "bytes32"
        },
        {
          "indexed": false,
          "internalType": "enum ProjectSubmission.ProjectStatus",
          "name": "status",
          "type": "uint8"
        }
      ],
      "name": "ReviewProjectEvent",
      "type": "event"
    },
    {
      "anonymous": false,
      "inputs": [
        {
          "indexed": true,
          "internalType": "bytes32",
          "name": "projectHash",
          "type": "bytes32"
        },
        {
          "indexed": false,
          "internalType": "address",
          "name": "author",
          "type": "address"
        },
        {
          "indexed": false,
          "internalType": "address",
          "name": "addrUniversity",
          "type": "address"
        }
      ],
      "name": "SubmitProjectEvent",
      "type": "event"
    },
    {
      "anonymous": false,
      "inputs": [
        {
          "indexed": false,
          "internalType": "address",
          "name": "recipient",
          "type": "address"
        },
        {
          "indexed": false,
          "internalType": "uint256",
          "name": "amount",
          "type": "uint256"
        }
      ],
      "name": "WithdrawEvent",
      "type": "event"
    },
    {
      "constant": true,
      "inputs": [],
      "name": "owner",
      "outputs": [
        {
          "internalType": "address",
          "name": "",
          "type": "address"
        }
      ],
      "payable": false,
      "stateMutability": "view",
      "type": "function"
    },
    {
      "constant": true,
      "inputs": [],
      "name": "ownerBalance",
      "outputs": [
        {
          "internalType": "uint256",
          "name": "",
          "type": "uint256"
        }
      ],
      "payable": false,
      "stateMutability": "view",
      "type": "function"
    },
    {
      "constant": true,
      "inputs": [
        {
          "internalType": "bytes32",
          "name": "",
          "type": "bytes32"
        }
      ],
      "name": "projects",
      "outputs": [
        {
          "internalType": "address",
          "name": "author",
          "type": "address"
        },
        {
          "internalType": "address",
          "name": "university",
          "type": "address"
        },
        {
          "internalType": "enum ProjectSubmission.ProjectStatus",
          "name": "status",
          "type": "uint8"
        },
        {
          "internalType": "uint256",
          "name": "balance",
          "type": "uint256"
        }
      ],
      "payable": false,
      "stateMutability": "view",
      "type": "function"
    },
    {
      "constant": true,
      "inputs": [
        {
          "internalType": "address",
          "name": "",
          "type": "address"
        }
      ],
      "name": "universities",
      "outputs": [
        {
          "internalType": "bool",
          "name": "available",
          "type": "bool"
        },
        {
          "internalType": "uint256",
          "name": "balance",
          "type": "uint256"
        }
      ],
      "payable": false,
      "stateMutability": "view",
      "type": "function"
    },
    {
      "constant": false,
      "inputs": [
        {
          "internalType": "address",
          "name": "_addrUniversity",
          "type": "address"
        }
      ],
      "name": "registerUniversity",
      "outputs": [],
      "payable": false,
      "stateMutability": "nonpayable",
      "type": "function"
    },
    {
      "constant": false,
      "inputs": [
        {
          "internalType": "address",
          "name": "_addrUniversity",
          "type": "address"
        }
      ],
      "name": "disableUniversity",
      "outputs": [],
      "payable": false,
      "stateMutability": "nonpayable",
      "type": "function"
    },
    {
      "constant": false,
      "inputs": [
        {
          "internalType": "bytes32",
          "name": "_projectHash",
          "type": "bytes32"
        },
        {
          "internalType": "address",
          "name": "_addrUniversity",
          "type": "address"
        }
      ],
      "name": "submitProject",
      "outputs": [],
      "payable": true,
      "stateMutability": "payable",
      "type": "function"
    },
    {
      "constant": false,
      "inputs": [
        {
          "internalType": "bytes32",
          "name": "_projectHash",
          "type": "bytes32"
        }
      ],
      "name": "disableProject",
      "outputs": [],
      "payable": false,
      "stateMutability": "nonpayable",
      "type": "function"
    },
    {
      "constant": false,
      "inputs": [
        {
          "internalType": "bytes32",
          "name": "_projectHash",
          "type": "bytes32"
        },
        {
          "internalType": "enum ProjectSubmission.ProjectStatus",
          "name": "_status",
          "type": "uint8"
        }
      ],
      "name": "reviewProject",
      "outputs": [],
      "payable": false,
      "stateMutability": "nonpayable",
      "type": "function"
    },
    {
      "constant": false,
      "inputs": [
        {
          "internalType": "bytes32",
          "name": "_projectHash",
          "type": "bytes32"
        }
      ],
      "name": "donate",
      "outputs": [],
      "payable": true,
      "stateMutability": "payable",
      "type": "function"
    },
    {
      "constant": false,
      "inputs": [],
      "name": "withdraw",
      "outputs": [],
      "payable": false,
      "stateMutability": "nonpayable",
      "type": "function"
    },
    {
      "constant": false,
      "inputs": [
        {
          "internalType": "bytes32",
          "name": "_projectHash",
          "type": "bytes32"
        }
      ],
      "name": "withdraw",
      "outputs": [],
      "payable": false,
      "stateMutability": "nonpayable",
      "type": "function"
    }
  ],
  "bytecode": "0x6080604052336000806101000a81548173ffffffffffffffffffffffffffffffffffffffff021916908373ffffffffffffffffffffffffffffffffffffffff16021790555034801561005057600080fd5b50611cf5806100606000396000f3fe6080604052600436106100a75760003560e01c80639dfb340c116100645780639dfb340c14610229578063b96ea12d1461027a578063bedcf00314610344578063c37067fa1461036f578063c95826f81461039d578063f0995560146103eb576100a7565b806310d6ada1146100ac5780633ccfd60b146100fd57806370b195ba146101145780638da5cb5b1461015c5780638e19899e146101b35780638ebd8196146101ee575b600080fd5b3480156100b857600080fd5b506100fb600480360360208110156100cf57600080fd5b81019080803573ffffffffffffffffffffffffffffffffffffffff16906020019092919050505061045b565b005b34801561010957600080fd5b506101126106ab565b005b34801561012057600080fd5b5061015a6004803603604081101561013757600080fd5b8101908080359060200190929190803560ff1690602001909291905050506109e9565b005b34801561016857600080fd5b50610171610c9b565b604051808273ffffffffffffffffffffffffffffffffffffffff1673ffffffffffffffffffffffffffffffffffffffff16815260200191505060405180910390f35b3480156101bf57600080fd5b506101ec600480360360208110156101d657600080fd5b8101908080359060200190929190505050610cc0565b005b3480156101fa57600080fd5b506102276004803603602081101561021157600080fd5b8101908080359060200190929190505050610f1d565b005b34801561023557600080fd5b506102786004803603602081101561024c57600080fd5b81019080803573ffffffffffffffffffffffffffffffffffffffff169060200190929190505050611050565b005b34801561028657600080fd5b506102b36004803603602081101561029d57600080fd5b8101908080359060200190929190505050611281565b604051808573ffffffffffffffffffffffffffffffffffffffff1673ffffffffffffffffffffffffffffffffffffffff1681526020018473ffffffffffffffffffffffffffffffffffffffff1673ffffffffffffffffffffffffffffffffffffffff16815260200183600381111561032757fe5b60ff16815260200182815260200194505050505060405180910390f35b34801561035057600080fd5b506103596112fe565b6040518082815260200191505060405180910390f35b61039b6004803603602081101561038557600080fd5b8101908080359060200190929190505050611304565b005b6103e9600480360360408110156103b357600080fd5b8101908080359060200190929190803573ffffffffffffffffffffffffffffffffffffffff1690602001909291905050506117d8565b005b3480156103f757600080fd5b5061043a6004803603602081101561040e57600080fd5b81019080803573ffffffffffffffffffffffffffffffffffffffff169060200190929190505050611b5b565b60405180831515151581526020018281526020019250505060405180910390f35b6000809054906101000a900473ffffffffffffffffffffffffffffffffffffffff1673ffffffffffffffffffffffffffffffffffffffff163373ffffffffffffffffffffffffffffffffffffffff161461051d576040517f08c379a00000000000000000000000000000000000000000000000000000000081526004018080602001828103825260178152602001807f43616c6c6572206973206e6f7420746865206f776e657200000000000000000081525060200191505060405180910390fd5b600073ffffffffffffffffffffffffffffffffffffffff168173ffffffffffffffffffffffffffffffffffffffff1614156105c0576040517f08c379a00000000000000000000000000000000000000000000000000000000081526004018080602001828103825260108152602001807f4164647265737320696e76616c69642e0000000000000000000000000000000081525060200191505060405180910390fd5b60405180604001604052806001151581526020016000815250600260008373ffffffffffffffffffffffffffffffffffffffff1673ffffffffffffffffffffffffffffffffffffffff16815260200190815260200160002060008201518160000160006101000a81548160ff021916908315150217905550602082015181600101559050507f5c173ec8b806391f0b2bd5990d766d298fc3a6870f7c4408a61437f151df5fba81604051808273ffffffffffffffffffffffffffffffffffffffff1673ffffffffffffffffffffffffffffffffffffffff16815260200191505060405180910390a150565b6000600260003373ffffffffffffffffffffffffffffffffffffffff1673ffffffffffffffffffffffffffffffffffffffff16815260200190815260200160002060010154118061075657506000809054906101000a900473ffffffffffffffffffffffffffffffffffffffff1673ffffffffffffffffffffffffffffffffffffffff163373ffffffffffffffffffffffffffffffffffffffff1614801561075557506000600154115b5b6107ab576040517f08c379a000000000000000000000000000000000000000000000000000000000815260040180806020018281038252604c815260200180611bfd604c913960600191505060405180910390fd5b60008060009054906101000a900473ffffffffffffffffffffffffffffffffffffffff1673ffffffffffffffffffffffffffffffffffffffff163373ffffffffffffffffffffffffffffffffffffffff16141561081257600154905060016000905561089e565b600260003373ffffffffffffffffffffffffffffffffffffffff1673ffffffffffffffffffffffffffffffffffffffff168152602001908152602001600020600101549050600260003373ffffffffffffffffffffffffffffffffffffffff1673ffffffffffffffffffffffffffffffffffffffff168152602001908152602001600020600101600090555b60003373ffffffffffffffffffffffffffffffffffffffff168260405180600001905060006040518083038185875af1925050503d80600081146108fe576040519150601f19603f3d011682016040523d82523d6000602084013e610903565b606091505b505090508061097a576040517f08c379a00000000000000000000000000000000000000000000000000000000081526004018080602001828103825260108152602001807f5472616e73666572206661696c65642e0000000000000000000000000000000081525060200191505060405180910390fd5b7f5dba113b49cfa7c90315e8e604e6b506f7abcb909b01dcb19ec39005086e68fc3383604051808373ffffffffffffffffffffffffffffffffffffffff1673ffffffffffffffffffffffffffffffffffffffff1681526020018281526020019250505060405180910390a15050565b6000809054906101000a900473ffffffffffffffffffffffffffffffffffffffff1673ffffffffffffffffffffffffffffffffffffffff163373ffffffffffffffffffffffffffffffffffffffff1614610aab576040517f08c379a00000000000000000000000000000000000000000000000000000000081526004018080602001828103825260178152602001807f43616c6c6572206973206e6f7420746865206f776e657200000000000000000081525060200191505060405180910390fd5b6000826003600082815260200190815260200160002060010160149054906101000a900460ff166003811115610add57fe5b826003811115610ae957fe5b14610b3f576040517f08c379a000000000000000000000000000000000000000000000000000000000815260040180806020018281038252603c815260200180611c49603c913960400191505060405180910390fd5b600073ffffffffffffffffffffffffffffffffffffffff166003600086815260200190815260200160002060000160009054906101000a900473ffffffffffffffffffffffffffffffffffffffff1673ffffffffffffffffffffffffffffffffffffffff161415610c18576040517f08c379a00000000000000000000000000000000000000000000000000000000081526004018080602001828103825260168152602001807f50726f6a656374206e6f74207375626d69747465642e0000000000000000000081525060200191505060405180910390fd5b826003600086815260200190815260200160002060010160146101000a81548160ff02191690836003811115610c4a57fe5b0217905550837f91cd962281064160ea68011a829088519f2f2856ff79f0d7fdd8533e5ae34d528460405180826003811115610c8257fe5b60ff16815260200191505060405180910390a250505050565b6000809054906101000a900473ffffffffffffffffffffffffffffffffffffffff1681565b3373ffffffffffffffffffffffffffffffffffffffff166003600083815260200190815260200160002060000160009054906101000a900473ffffffffffffffffffffffffffffffffffffffff1673ffffffffffffffffffffffffffffffffffffffff16148015610d47575060006003600083815260200190815260200160002060020154115b610d9c576040517f08c379a000000000000000000000000000000000000000000000000000000000815260040180806020018281038252603c815260200180611c85603c913960400191505060405180910390fd5b600060036000838152602001908152602001600020600201549050600360008381526020019081526020016000206002016000905560003373ffffffffffffffffffffffffffffffffffffffff168260405180600001905060006040518083038185875af1925050503d8060008114610e31576040519150601f19603f3d011682016040523d82523d6000602084013e610e36565b606091505b5050905080610ead576040517f08c379a00000000000000000000000000000000000000000000000000000000081526004018080602001828103825260108152602001807f5472616e73666572206661696c65642e0000000000000000000000000000000081525060200191505060405180910390fd5b7f5dba113b49cfa7c90315e8e604e6b506f7abcb909b01dcb19ec39005086e68fc3383604051808373ffffffffffffffffffffffffffffffffffffffff1673ffffffffffffffffffffffffffffffffffffffff1681526020018281526020019250505060405180910390a1505050565b6000809054906101000a900473ffffffffffffffffffffffffffffffffffffffff1673ffffffffffffffffffffffffffffffffffffffff163373ffffffffffffffffffffffffffffffffffffffff1614610fdf576040517f08c379a00000000000000000000000000000000000000000000000000000000081526004018080602001828103825260178152602001807f43616c6c6572206973206e6f7420746865206f776e657200000000000000000081525060200191505060405180910390fd5b600380600083815260200190815260200160002060010160146101000a81548160ff0219169083600381111561101157fe5b02179055507fd019f7cdaff2245431a46b5ee3343b084bbffa8b8128cbcd1c779d80dafd5837816040518082815260200191505060405180910390a150565b6000809054906101000a900473ffffffffffffffffffffffffffffffffffffffff1673ffffffffffffffffffffffffffffffffffffffff163373ffffffffffffffffffffffffffffffffffffffff1614611112576040517f08c379a00000000000000000000000000000000000000000000000000000000081526004018080602001828103825260178152602001807f43616c6c6572206973206e6f7420746865206f776e657200000000000000000081525060200191505060405180910390fd5b8060011515600260008373ffffffffffffffffffffffffffffffffffffffff1673ffffffffffffffffffffffffffffffffffffffff16815260200190815260200160002060000160009054906101000a900460ff161515146111bf576040517f08c379a000000000000000000000000000000000000000000000000000000000815260040180806020018281038252602c815260200180611bd1602c913960400191505060405180910390fd5b6000600260008473ffffffffffffffffffffffffffffffffffffffff1673ffffffffffffffffffffffffffffffffffffffff16815260200190815260200160002060000160006101000a81548160ff0219169083151502179055507f54aacc990c3f9fac07edee187caf5587ceaefd765469613f9c352dafa29b495482604051808273ffffffffffffffffffffffffffffffffffffffff1673ffffffffffffffffffffffffffffffffffffffff16815260200191505060405180910390a15050565b60036020528060005260406000206000915090508060000160009054906101000a900473ffffffffffffffffffffffffffffffffffffffff16908060010160009054906101000a900473ffffffffffffffffffffffffffffffffffffffff16908060010160149054906101000a900460ff16908060020154905084565b60015481565b6002816003600082815260200190815260200160002060010160149054906101000a900460ff16600381111561133657fe5b82600381111561134257fe5b14611398576040517f08c379a000000000000000000000000000000000000000000000000000000000815260040180806020018281038252603c815260200180611c49603c913960400191505060405180910390fd5b6000341161140e576040517f08c379a00000000000000000000000000000000000000000000000000000000081526004018080602001828103825260158152602001807f496e73756666696369656e7420646f6e6174696f6e000000000000000000000081525060200191505060405180910390fd5b611416611b8c565b6040518060600160405280604660ff168152602001601460ff168152602001600a60ff168152509050611447611bae565b60405180606001604052806003600088815260200190815260200160002060020154815260200160026000600360008a815260200190815260200160002060010160009054906101000a900473ffffffffffffffffffffffffffffffffffffffff1673ffffffffffffffffffffffffffffffffffffffff1673ffffffffffffffffffffffffffffffffffffffff168152602001908152602001600020600101548152602001600154815250905060008090505b600381101561168357600083826003811061151157fe5b602002015160ff16340290503484836003811061152a57fe5b602002015160ff16828161153a57fe5b04146115ae576040517f08c379a00000000000000000000000000000000000000000000000000000000081526004018080602001828103825260178152602001807f4d756c7469706c69636174696f6e206f766572666c6f7700000000000000000081525060200191505060405180910390fd5b8282600381106115ba57fe5b6020020151606482816115c957fe5b048484600381106115d657fe5b6020020151011161164f576040517f08c379a00000000000000000000000000000000000000000000000000000000081526004018080602001828103825260118152602001807f4164646974696f6e206f766572666c6f7700000000000000000000000000000081525060200191505060405180910390fd5b6064818161165957fe5b0483836003811061166657fe5b6020020181815101915081815250505080806001019150506114fa565b508060006003811061169157fe5b60200201516003600087815260200190815260200160002060020181905550806001600381106116bd57fe5b6020020151600260006003600089815260200190815260200160002060010160009054906101000a900473ffffffffffffffffffffffffffffffffffffffff1673ffffffffffffffffffffffffffffffffffffffff1673ffffffffffffffffffffffffffffffffffffffff168152602001908152602001600020600101819055508060026003811061174b57fe5b6020020151600181905550847fba852218ce4a376f87fcbb0243307cf331d7b14dfb6d06d3affafb0a494df84c8260006003811061178557fe5b60200201518360016003811061179757fe5b6020020151846002600381106117a957fe5b602002015160405180848152602001838152602001828152602001935050505060405180910390a25050505050565b8060011515600260008373ffffffffffffffffffffffffffffffffffffffff1673ffffffffffffffffffffffffffffffffffffffff16815260200190815260200160002060000160009054906101000a900460ff16151514611885576040517f08c379a000000000000000000000000000000000000000000000000000000000815260040180806020018281038252602c815260200180611bd1602c913960400191505060405180910390fd5b670de0b6b3a76400003414611902576040517f08c379a00000000000000000000000000000000000000000000000000000000081526004018080602001828103825260158152602001807f496e636f72726563742066656520616d6f756e742e000000000000000000000081525060200191505060405180910390fd5b60405180608001604052803373ffffffffffffffffffffffffffffffffffffffff1681526020018373ffffffffffffffffffffffffffffffffffffffff1681526020016000600381111561195257fe5b815260200160008152506003600085815260200190815260200160002060008201518160000160006101000a81548173ffffffffffffffffffffffffffffffffffffffff021916908373ffffffffffffffffffffffffffffffffffffffff16021790555060208201518160010160006101000a81548173ffffffffffffffffffffffffffffffffffffffff021916908373ffffffffffffffffffffffffffffffffffffffff16021790555060408201518160010160146101000a81548160ff02191690836003811115611a2157fe5b021790555060608201518160020155905050600060015490508034820111611ab1576040517f08c379a00000000000000000000000000000000000000000000000000000000081526004018080602001828103825260118152602001807f4164646974696f6e206f766572666c6f7700000000000000000000000000000081525060200191505060405180910390fd5b348101905080600181905550837f44bd14568a9f21e9a26ff5b657c7357dd1ac737d0f55726b3ba43d66110869083385604051808373ffffffffffffffffffffffffffffffffffffffff1673ffffffffffffffffffffffffffffffffffffffff1681526020018273ffffffffffffffffffffffffffffffffffffffff1673ffffffffffffffffffffffffffffffffffffffff1681526020019250505060405180910390a250505050565b60026020528060005260406000206000915090508060000160009054906101000a900460ff16908060010154905082565b6040518060600160405280600390602082028038833980820191505090505090565b604051806060016040528060039060208202803883398082019150509050509056fe556e7265676973746572656420756e6976657273697479206f7220616c72656164792064697361626c65642e4f6e6c7920746865206f776e6572206f72206120756e697665727369747920776974682073756666696369656e742062616c616e636520697320616c6c6f7720746f2077697468647261772e5468652063757272656e742073746174757320646f6573206e6f7420616c6c6f7720796f7520746f20706572666f6d207468697320616374696f6e2e4f6e6c7920612073747564656e7420776974682073756666696369656e742062616c616e636520697320616c6c6f7720746f2077697468647261772ea265627a7a723158201e480f059692a067ab59f6256d3d02381414b09761c543796cbab8ceeb9220c064736f6c63430005110032",
  "source": "pragma solidity ^0.5.0;\n\ncontract ProjectSubmission { // Step 1\n\n    address public owner = msg.sender; // Step 1 (state variable)\n    uint public ownerBalance; // Step 4 (state variable)\n    modifier onlyOwner() { // Step 1\n      require(msg.sender == owner, \"Caller is not the owner\");\n      _;\n    }\n    \n    struct University { // Step 1\n        bool available;\n        uint balance;\n    }\n    mapping(address => University) public universities; // Step 1 (state variable)\n    modifier validUniversity(address _addrUniversity) {\n      require(universities[_addrUniversity].available == true, \"Unregistered university or already disabled.\");\n      _;\n    }\n    \n    enum ProjectStatus { Waiting, Rejected, Approved, Disabled } // Step 2\n    struct Project { // Step 2\n        address author;\n        address university;\n        ProjectStatus status;\n        uint balance;\n    }\n    mapping(bytes32 => Project) public projects; // Step 2 (state variable)\n    \n    // modifier validId(uint _id, uint _count) {\n    //   require(_id < _count, \"University or project not registered.\");\n    //   _;\n    // }\n    modifier validStatus(ProjectStatus _status, bytes32 _projectHash) {\n      require(_status == projects[_projectHash].status, \"The current status does not allow you to perfom this action.\");\n      _;\n    }\n\n    event RegisterUniversityEvent(address addrUniversity);\n    event DisableUniversityEvent(address addrUniversity);\n    event SubmitProjectEvent(bytes32 indexed projectHash, address author, address addrUniversity);\n    event DisableProjectEvent(bytes32 projectHash);\n    event ReviewProjectEvent(bytes32 indexed projectHash, ProjectStatus status);\n    event DonateEvent(bytes32 indexed projectHash, uint projectBalance, uint univBalance, uint ownerBalance);\n    event WithdrawEvent(address recipient, uint amount);\n    \n    function registerUniversity(address _addrUniversity) \n      external \n      onlyOwner \n    { // Step 1\n       require(_addrUniversity != address(0), \"Address invalid.\");\n       universities[_addrUniversity] = University(true, 0);\n       emit RegisterUniversityEvent(_addrUniversity); \n    }\n    \n    function disableUniversity(address _addrUniversity) \n      external \n      onlyOwner\n      validUniversity(_addrUniversity)  \n    {// Step 1\n      universities[_addrUniversity].available = false; //should be disabled in the UI\n      emit DisableUniversityEvent(_addrUniversity);\n    }\n    \n    function submitProject(bytes32 _projectHash, address _addrUniversity) \n      external \n      payable \n      validUniversity(_addrUniversity) \n    { // Step 2 and 4\n      require(msg.value == 1 ether, \"Incorrect fee amount.\");\n      projects[_projectHash] = Project(msg.sender, _addrUniversity, ProjectStatus.Waiting, 0);\n      uint _ownerBalance = ownerBalance;\n      require(_ownerBalance + msg.value > _ownerBalance, \"Addition overflow\"); \n      _ownerBalance+= msg.value;\n      ownerBalance = _ownerBalance;\n      emit SubmitProjectEvent(_projectHash, msg.sender, _addrUniversity);\n    }\n    \n    function disableProject(bytes32 _projectHash)\n      external\n      onlyOwner\n      //validId(_projectId, projects.length) //really necessary?\n      //validStatus(ProjectStatus.Approved, _projectHash) //Disabled to make test passed but as per the specification the project should be on Approved status to be disabled \n    {// Step 3\n      projects[_projectHash].status = ProjectStatus.Disabled;\n      emit DisableProjectEvent(_projectHash);\n    }\n    \n    function reviewProject(bytes32 _projectHash, ProjectStatus _status) \n      external \n      onlyOwner\n      //validId(_projectId, projects.length)\n      validStatus(ProjectStatus.Waiting, _projectHash)\n    {// Step 3\n      require(projects[_projectHash].author != address(0), \"Project not submitted.\");\n      projects[_projectHash].status = _status;\n      emit ReviewProjectEvent(_projectHash, _status);\n    }\n    \n    function donate(bytes32 _projectHash)\n      external\n      payable\n      //validId(_projectId, projects.length) //really necessary?\n      validStatus(ProjectStatus.Approved, _projectHash)\n    { // Step 4\n      require(msg.value > 0, \"Insufficient donation\");\n      uint8[3] memory rates = [70, 20, 10];\n      uint[3] memory balances = [projects[_projectHash].balance, universities[projects[_projectHash].university].balance, ownerBalance];\n      for (uint i = 0; i < 3; i++) {\n        uint share = msg.value * rates[i];\n        require(share / rates[i] == msg.value, \"Multiplication overflow\");\n        require(balances[i] + share / 100 > balances[i], \"Addition overflow\");\n        balances[i] += share / 100;\n      }\n      projects[_projectHash].balance = balances[0];\n      universities[projects[_projectHash].university].balance = balances[1];\n      ownerBalance = balances[2];\n      emit DonateEvent(_projectHash, balances[0], balances[1], balances[2]);\n    }\n    \n    function withdraw() external { // Step 5\n      require(universities[msg.sender].balance > 0 || msg.sender == owner && ownerBalance > 0, \"Only the owner or a university with sufficient balance is allow to withdraw.\");\n      uint amount;\n      if(msg.sender == owner) {\n        amount = ownerBalance;\n        delete ownerBalance;  \n      } else {\n        amount = universities[msg.sender].balance;\n        delete universities[msg.sender].balance;\n      }\n      (bool success,) = msg.sender.call.value(amount)(\"\");\n      require(success, \"Transfer failed.\");\n      emit WithdrawEvent(msg.sender, amount);\n    }\n    \n    function withdraw(bytes32 _projectHash) external {  // Step 5 (Overloading Function)\n      require(projects[_projectHash].author == msg.sender && projects[_projectHash].balance > 0,\"Only a student with sufficient balance is allow to withdraw.\");\n      uint amount = projects[_projectHash].balance;\n      delete projects[_projectHash].balance;\n      (bool success,) = msg.sender.call.value(amount)(\"\");\n      require(success, \"Transfer failed.\");\n      emit WithdrawEvent(msg.sender, amount);\n    }\n}",
  "sourcePath": "/home/arnaud/Documents/Ethereum/ProjectSubmission/project-submission-arnaud-eb/contracts/ProjectSubmission.sol",
  "compiler": {
    "name": "solc",
    "version": "0.5.17+commit.d19bba13.Emscripten.clang"
  },
  "schemaVersion": "3.3.1",
  "updatedAt": "2021-01-25T16:52:11.705Z",
  "devdoc": {
    "methods": {}
  },
  "userdoc": {
    "methods": {}
  }
}